:020000040000fa
:080000000002040000000000f2
:020000040000fa
:10040000ef5021000eff27000e01880000000000c1
:100410000c00070040cd2100010020001100070062
:10042000000020000000e000020032000000020096
:10043000000000006c180200000000000040da001c
:100440000000fe004440a900e00420000000e0009d
:100450000300320000002000a00188004440a800f2
:100460000000060091018800800078000000eb0089
:1004700015003700e280400032a0b4009101ba00bc
:10048000e280400032a0b4009102ba00e280400055
:1004900032a0b4000002eb00472bde00f507b200eb
:1004a000602ce10004003a000059eb008301e900f0
:1004b000fdff3e00040037006128e100010032002a
:1004c0000082eb00040007001101ba000200e00006
:1004d000e8ff3a00000006003159ba008301e90044
:1004e0000c0032002159ba008301e90008003200f3
:1004f0000400e00003003a00e280400032a0b400b3
:10050000f5ff370011d9ba008301e900faff3a007c
:100510008100e800e180400032a0b4000000060045
:10052000cc18040000000000f818040000000000cf
:100530001219040000000000ee0b0400000000008f
:100540000040da000000fe008001eb0002003700ee
:1005500061f079008301e800828f5100fcff3a00ce
:100560000000060000037800800278000202780094
:100570008001eb00080037000402e90063c0780046
:10058000805a78008301e8000004e00002003a008d
:100590008000eb0006003700828f5100f6ff3a0022
:1005a000fbff37000040eb0080f07a008100e8009c
:1005b000848f5000fbff3a00060078000000060020
:1005c0008001eb0002003700817178008301e800b0
:0c05d000828f5100fcff3a000000060082
:020000040000fa
:0200000401f009
:04000800ffff0000f6
:020000040000fa
:0200000401f009
:04000c0079ff000078
:020000040000fa
:0200000401f009
:040010007fff00006e
:020000040000fa
:0200000401f009
:040014007fff00006a
:020000040000fa
:0200000401f009
:04001800f8ff0000ed
:020000040000fa
:0200000401f009
:04001c00ffff0000e2
:020000040000fa
:10000800a0020000a0020000a0020000a002000060
:10001800a0020000a0020000a0020000a002000050
:10002800a0020000a0020000a0020000401800008a
:10003800a0020000a0020000a0020000a002000030
:10004800a0020000a0020000a0020000a002000020
:10005800a002000086190000a0020000a002000013
:10006800a0020000a0020000a0020000a002000000
:10007800a0020000a0020000a0020000a0020000f0
:10008800a0020000a0020000a0020000a0020000e0
:10009800a0020000a0020000a0020000a0020000d0
:1000a800a0020000a0020000a0020000a0020000c0
:1000b800a002000056190000a0020000a0020000e3
:1000c800a0020000a0020000a0020000a0020000a0
:1000d800a0020000a0020000a0020000a002000090
:1000e800a0020000a0020000a0020000a002000080
:1000f800a0020000a0020000a0020000a002000070
:10010800a0020000a0020000a0020000a00200005f
:10011800a0020000a0020000a0020000a00200004f
:10012800a0020000a0020000a0020000a00200003f
:10013800a0020000a0020000a0020000a00200002f
:10014800a0020000a0020000a0020000a00200001f
:10015800a0020000a0020000a0020000a00200000f
:10016800a0020000a0020000a0020000a0020000ff
:10017800a0020000a0020000a0020000a0020000ef
:10018800a0020000a0020000a0020000a0020000df
:10019800a0020000a0020000a0020000a0020000cf
:1001a800a0020000a0020000a0020000a0020000bf
:1001b800a0020000a0020000a0020000a0020000af
:1001c800a0020000a0020000a0020000a00200009f
:1001d800a0020000a0020000a0020000a00200008f
:1001e800a0020000a0020000a0020000a00200007f
:0801f800a0020000a0020000bb
:020000040000fa
:10020800a0020000a0020000a0020000a00200005e
:10021800a0020000a0020000a0020000a00200004e
:10022800a0020000a0020000a00200004018000088
:10023800a0020000a0020000a0020000a00200002e
:10024800a0020000a0020000a0020000a00200001e
:10025800a002000086190000a0020000a002000011
:10026800a0020000a0020000a0020000a0020000fe
:10027800a0020000a0020000a0020000a0020000ee
:10028800a0020000a0020000a0020000a0020000de
:10029800a0020000a0020000a0020000a0020000ce
:1002a800a0020000a0020000a0020000a0020000be
:1002b800a002000056190000a0020000a0020000e1
:1002c800a0020000a0020000a0020000a00200009e
:1002d800a0020000a0020000a0020000a00200008e
:1002e800a0020000a0020000a0020000a00200007e
:1002f800a0020000a0020000a0020000a00200006e
:10030800a0020000a0020000a0020000a00200005d
:10031800a0020000a0020000a0020000a00200004d
:10032800a0020000a0020000a0020000a00200003d
:10033800a0020000a0020000a0020000a00200002d
:10034800a0020000a0020000a0020000a00200001d
:10035800a0020000a0020000a0020000a00200000d
:10036800a0020000a0020000a0020000a0020000fd
:10037800a0020000a0020000a0020000a0020000ed
:10038800a0020000a0020000a0020000a0020000dd
:10039800a0020000a0020000a0020000a0020000cd
:1003a800a0020000a0020000a0020000a0020000bd
:1003b800a0020000a0020000a0020000a0020000ad
:1003c800a0020000a0020000a0020000a00200009d
:1003d800a0020000a0020000a0020000a00200008d
:1003e800a0020000a0020000a0020000a00200007d
:0803f800a0020000a0020000b9
:020000040000fa
:1005dc0011110000222200003333000044440000bb
:1005ec00555500006666000077770000888800008b
:1005fc0099990000aaaa0000bbbb0000cccc00005b
:10060c00dddd0000eeee0000cecd0000acab000056
:10061c0002020000030300000404000005050000b2
:10062c000606000007070000080800000a09000081
:10063c001010000010110000121200005465000090
:10064c00737400003100000063740000494f000017
:10065c0000440000756d00006d7900000000000082
:0c066c00494400004c4500000000000064
:020000040000fa
:100678001600fa00300798004107980052079800c2
:100688006307980074079800050f9800160f9800e4
:10069800270f98009e0890005e009000d80407007d
:1006a800100798001e0090000000e000570032007c
:1006b8001e009000c0089000010f78001e009000f6
:1006c800c00890005e0090000000400000804000dc
:1006d8008080e9001e009000710898005e0290007a
:1006e800ae0990007e019000ce0090001e009000a0
:1006f800430407006e019000be0090001e007800c1
:10070800c4090700800078001e00900001087800e6
:100718000e0890000000e000030032000e08900070
:100728009e009000010878003c0a070050a780004e
:100738000000e80050a7880030a780000000e00013
:1007480007003a001e00900030a7880050a78000dc
:10075800e10f50000c003a00500407000a0037006f
:1007680090a780000000e00007003a0030a7800052
:10077800b00890007e009000808f500002003e007c
:100788009e00900031a788001e009000b0089000dd
:1007980070a78000808f5000030036001e00900074
:1007a8003008900070a78800e0a780000000e800eb
:1007b800e0a788001e009000b008900080a7800085
:1007c800808f5000030036001e0090003008900013
:1007d80080a788001e0090000081e8001e0090009d
:1007e800300890006a00b900800078002045210098
:1007f8000080400082007800820b07001000200073
:10080800200798000f0a0700020037000080eb005d
:10081800200798002e009000e10f50000b003a00ce
:1008280090a780000000e0000800320030a7800098
:10083800b00890007e009000808f500003003100c7
:10084800ee1b020000000000000000002e009000d7
:100858000080fa00000006000600fa001007980061
:10086800ee09070031a780001e009000810f50009c
:1008780002003a000000eb00100798001e009000ec
:100888000000e00003003a0030a78000200798002d
:10089800020037009e009000210798002e0090006b
:1008a800000f78001e80e800a80b07001e007800e3
:1008b800200890000000e000030032009e0078004d
:1008c8006c804000a10b07009e80e800c049210011
:1008d8004c0b070040a780000000e80040a78800f4
:1008e800e0a780000000e800e0a78800d50907001d
:1008f80090a780000000e000060032001e00900073
:100908000000e00003003a00ee1b020000000000b7
:10091800000000000080fa00000006000a00fa004b
:1009280030079800410798000000eb00000f78009e
:10093800910107003e009000900078004e00900062
:1009480000804000200798003e009000900078004a
:1009580060a78000808f50000c0036003e00900099
:10096800900078002e009000808f50001200360012
:1009780061a780002e009000810f50000e00360005
:1009880010002000000f78000b0037003e00900098
:10099800900078002e009000808f500004003e00e8
:1009a80061a780002e009000810f500002003600e1
:1009b80010002000000f78003e009000ae0090006c
:1009c800010878001e00e0000500320030a7800012
:1009d8000080e8005d0b07002e009000f003070080
:1009e8006b010700100798001e0090000000e0004f
:1009f80003003a00ee1b02000000000000000000a7
:100a08000080fa00000006000600fa00200798009f
:100a18000000eb00000f78002e0090000000e000be
:100a28000c0032005401070061a780002e009000de
:100a3800008040001007980030a780000080e80080
:100a4800420b07001e009000d50307005001070065
:100a5800000f78001e00e00003003a00ee1b0200c1
:100a680000000000000000000080fa0000000600fe
:100a78000800fa0020079800680907002e00900077
:100a88000000e00003003a0030a78000300798001b
:100a980002003700ae009000310798003e00900039
:100aa800100798001e009000b0089000010f780011
:100ab800640907001e0078000080fa0000000600a4
:100ac8000c00fa0030079800410798000000eb007e
:100ad800000f78004e009000e30f5000020036002f
:100ae80030002000400798004c09070031a780001b
:100af8003e009000810f500002003a000000eb0019
:100b0800300798003e0090000000e00003003a0023
:100b180030a780005007980002003700be00900000
:100b2800510798005e009000200798002e00900062
:100b3800b0089000110798009e0090004e009000a9
:100b4800808f50003a003200ce0090001e009000c6
:100b5800808f5000060036003e0090000000e00044
:100b68000800320010002000000f78000500370050
:100b78003e0090000000e00002003a001000200053
:100b8800000f78002e009000ce00900031089800e9
:100b98004e009000e40010002e00900061009800c4
:100ba8002e009000500190001e0090006a00b900cd
:100bb800800078002045210000804000800f51000f
:100bc80015003a002e0090000080e800df0a0700b8
:100bd8002e009000b008900080a78000808f500001
:100be800030036002e0090003008900080a788008f
:100bf8002e0090000081e8002e0090003008900040
:100c08006a00b9008000780020452100008040007b
:100c1800820078007b0a0700100020009e0f100059
:100c280003003a00ee1b0200000000000000000074
:100c3800040907000080fa00000006000600fa0018
:100c480010079800f508070031a780001e009000e3
:100c5800810f500002003a000000eb0010079800d6
:100c68001e0090000000e00003003a0030a780005a
:100c780020079800020037009e0090002107980086
:100c88002e009000000f78001e80e800af0a0700d1
:100c98001e007800200890000000e00003003200e9
:100ca8009e0078006c804000a80a07009e80e8003b
:100cb800604a2100530a0700e20807001e0090005e
:100cc8000000e0000f003a0090a780000000e0005c
:100cd80004003200ee1b02000000000000000000cb
:100ce8000800370031a5800050a78000808f500091
:100cf80003003a000000eb0030a78800010037002d
:100d0800f70107000080fa00000006000600fa005c
:100d1800200798000000eb00100798002e009000b4
:100d2800000f78001e007800d0009000604a210073
:100d3800808f50000b003a001e007800a008900039
:100d480020492100808f5000060032001e007800e4
:100d5800200890000000e00002003a001000200087
:100d6800100798001e0090000080fa00000006009e
:100d78000400fa00100798001e009000000f780089
:100d88001e00e0002500320030a780009e0f1000f2
:100d980022003200a10807001e007800dbff0700d0
:100da800e10f50001c003a001e80e800670a0700a7
:100db8001e007800b008900080a78000808f500047
:100dc800030036001e0078003008900080a78800d5
:100dd8001e81e8001e007800300890006a00b90003
:100de80080007800204521000080400082007800c3
:100df800040a07001e007800b008900030a78000a1
:100e080030089000808f500003003900ee1b02006c
:100e180000000000000000008a0807000080fa00b7
:100e2800000006000600fa00200798000000eb000a
:100e3800100798002e009000000f78001e00780020
:100e4800b2ff0700e10f500025003a00a0a780007c
:100e58000000e0001e003a001e00780030099000f3
:100e680030a78000b00890000000eb001007980041
:100e7800810f51000200390010002000100798006f
:100e88001e80e800310a07001e007800b0089000b4
:100e980080a78000808f5000030036001e00780075
:100ea8003008900080a788001e81e8001e007800a6
:100eb800300890006a00b9008000780020452100c1
:100ec8000080400082007800ce0907000400370047
:100ed8001e007800ec00400020492100c9090700e5
:100ee8001e0090000080fa00000006000200fa00d0
:100ef800613328008003eb000003eb008002eb0065
:100f08000002eb008001eb0052052000e0be20004b
:100f1800d7fd0700000f7800100020009e0f10007a
:100f280009003a00110280000002200000807000d1
:100f3800100288001000200090a788000000eb0035
:100f480060a78800f90707000080fa000000060083
:100f58000000fa00110280000002200000807000ea
:100f6800100288000000eb0090a788001108070015
:100f78000080fa00000006000000fa00a0a7800028
:100f88000000e800a0a788000080fa000000060022
:100f98000600fa000000eb00100798001f08070081
:100fa800a0a780000000e900a0a78800a0a78000f3
:100fb8000000e00046003a0050a780000000e00072
:100fc800430032000000eb00000f780023003700d8
:100fd800c0a480003000900020079800ae00900068
:100fe8006c804000d9090700ae0090000180e8003d
:100ff800d60907002e009000b008900080a7800056
:10100800808f500003003600ae0090003108900039
:1010180080a788002e0090000081e800ae009000b4
:10102800310890006a00b90080007800204521004e
:101038000080400082007800720907002e009000ae
:10104800b008900030a7800030089000808f5000d2
:101058000200390010002000000f780090a48000e2
:101068000000e000daff3a00b0a780000000e000ce
:101078000a003200040037002d000700b0a78000e6
:101088000000e900b0a78800b0a780000000e000d9
:10109800f9ff3a0010002000000f7800110020002e
:1010a8009e8f100003003200c0a78000e10f50009f
:1010b80007003a0010002000100798000000eb001d
:1010c800c0a78800ee1b020000000000000000001e
:1010d800dc0707001e0090000080fa0000000600f0
:1010e8000200fa00cd07070060a78000000f780013
:1010f800d40707001e0078000080fa0000000600f0
:101108000400fa000000eb00000f780060a78000e0
:10111800100798001e0090000080fa0000000600ea
:101128000000fa0050a780000080fa0000000600c6
:101138000600fa00a0a780000000e00052003a0074
:1011480060a780000000e80060a7880060a7800012
:101158000000e00017003a0070a480001007980013
:1011680080a4800070a488009e00900081a488005c
:10117800d0a780000000e800d0a7880070a48000f5
:10118800100078000000e00003003a000080eb0047
:10119800f0a788000700370070a480003000900096
:1011a80030009000200798002e009000100090005a
:1011b800f0a7880061a78000f0a78000808f50000a
:1011c8003400390070a48000100078000000e000ae
:1011d80003003a000080eb00f0a788002d003700dc
:1011e80070a4800030009000300090002007980024
:1011f8002e00900090009000010f780060a78000fa
:101208009e0f5000030031001e007800f0a78800f0
:10121800200037002e0090000080e8004b090700ee
:101228002e009000200890000000e000030032002b
:101238002e0090006c004000440907002e0090002a
:10124800b008900080a78000808f5000030036000f
:101258002e0090003008900080a788002e00900093
:101268000081e8002e009000300890006a00b90064
:10127800800078002045210000804000820078002e
:10128800e0080700cfff3700b0a780000000e800a3
:10129800b0a788000080fa00000006000c00fa00e1
:1012a80070a780000000e800500798005e009000da
:1012b8000000e900500798001f0037005e0090000a
:1012c8006a00b900800078002045210000804000b5
:1012d800300798003e0090001000900090009000a9
:1012e8003e009000110098003e0090009000900091
:1012f8003e00900064004000808f500005003a00d6
:101308003e00900010009000900090003e00900079
:10131800110098003e0090001000900030009000ee
:10132800400798004e0090000080e8000709070079
:101338004e009000da0107005e0090006a00b900d4
:1013480080007800204521000080400010007800cf
:101358000000e000d9ff3a005e0090000000e000c5
:10136800d2ff3a001b003700a04721002007980051
:101378002e00900010009000900090002e00900029
:10138800110098002e009000900090002e00900010
:1013980064004000808f500005003a002e00900045
:1013a80010009000900090002e009000110098000e
:1013b8002e00900010009000300090004007980028
:1013c8004e0090000080e800e00807004e00900002
:1013d800b3010700d0a380000000e000e2ff3a005c
:1013e8001b00370040482100100798001e0090009d
:1013f80010009000900090001e00900011009800ce
:101408001e009000900090001e00900064004000b4
:10141800808f500005003a001e00900010009000d8
:10142800900090001e009000110098001e0090008f
:101438001000900030009000400798004e00900087
:101448000080e800c10807004e00900094010700e2
:1014580020a480000000e000e2ff3a001b003700f3
:10146800604a2100000f78001e00780010009000ec
:10147800900090001e007800110098001e0078006f
:10148800900090001e01780064004100808f500099
:1014980005003a001e0078001000900090009000af
:1014a8001e007800110098001e00780010009000bf
:1014b80030009000400798004e0090000080e8003f
:1014c800a20807004e0090007501070030a58000b3
:1014d8000000e000e2ff3a000080fa000000060089
:1014e8000200fa00a0a780000000e0000600320019
:1014f80010002000c0a788002400370080a78000c3
:101508000000e90080a7880080a780006a00b90071
:1015180080007800204521000080400010007800fd
:101528000000e000f5ff320080a780006a00b900e3
:101538008000780020452100008f40001e007800c0
:1015480010009000900090001e0078001100980094
:101558001e007800900090001e0178006400410091
:10156800808f500005003a001e007800100090009f
:10157800900090001e007800110098001e0078006e
:10158800100090003000900030a788000080fa001a
:10159800000006000600fa001007980021079800ce
:1015a80030a78000ec0040001e00900037080700bc
:1015b80030a780000080e800640807002e00900033
:1015c800e10f400005003a0030a780008080e80065
:1015d800604a21000b0807000500370061a780005a
:1015e8002e009000008f40001e007800ec000700dd
:1015f8000080fa00000006000600fa0020079800a4
:101608002e009000300090003000900010079800e5
:101618001e0090006c0040004c080700a0a7800046
:101628000000e00016003a001e0090000080e8006c
:10163800460807001e009000b008900080a78000b0
:10164800808f5000030036001e0090003008900084
:1016580080a788001e0090000081e8001e0090000e
:10166800300890006a00b900800078002045210009
:101678000080400082007800e2070700040037007d
:101688001e009000ec00400020492100dd07070003
:101698001e009000b008900030a78000300890002d
:1016a800808f50000300390010002000000f7800e0
:1016b800020037000000eb00000f78001e007800e1
:1016c8000080fa00000006000200fa00000f78000f
:1016d800d1a780001e0078000108780061a780006b
:1016e8001e007800110098000080fa000000060033
:1016f8000600fa001007980021079800470607001f
:101708002e00900010007800e10f400003003a001e
:101718000000eb00000f7800250037001e00900045
:1017280090007800d0a78000808f50000800320019
:101738001e0090009000900060a78000808f5000ed
:1017480003003e0010002000000f7800180037004a
:1017580061a780001e00900010009000808050005b
:101768002e00900010007800808f50000e0031008d
:101778002e0090001001780061a780001e009000e4
:101788001000900000805000800051002e00900052
:10179800010878001e009000cbff07000000eb0056
:1017a800000f78000200370010002000000f7800ba
:1017b800240607001e0078000080fa0000000600da
:1017c8000000fa0010002000c0a788000080fa007e
:1017d800000006000200fa00000f78004d00070024
:1017e80090a28000e10f500003003600ee1b0200bb
:1017f8000000000000000000a8060700f7ff3700ff
:101808000a00fa00000f78001107980022079800d4
:1018180033079800440798009e0090001e01780046
:101828007a004100420020004cfb07009e0078002f
:101838000040eb00d05898002e009000e30f5000b5
:101848000200360030002000200798001e007800b3
:10185800ae009000310898001e80e800620707007b
:101868001e0178006c0041005f0707001e00780029
:101878009e007800410098002e009000e4001000bf
:101888001e007800610098001e0078001e01780094
:10189800120898000080fa00000006000200fa0012
:1018a8000000eb00000f7800070037001e007800ea
:1018b8006a00b900800078002045210000804000bf
:1018c800300707001e0fe800300020009e0f1000b0
:1018d800f6ff3600a04721002a07070040482100ec
:1018e800280707002049210026070700c0492100d2
:1018f80024070700604a210022070700a0472100ab
:1019080070a488004048210080a488000080fa0064
:10191800000006000400fa0040a780000000e00074
:101928001d00320094fd0700e1a480000000eb00d8
:10193800100798000100e00002003a0010002000a3
:101948001007980092fd07001e0090000000e000bc
:1019580011003a00b1050700c049210064004000a9
:101968001000900030009000000f78001e80e80002
:101978007607070050a780000000e90050a78800fc
:1019880040a780000000e90040a78800ad050700d7
:101998001e007800420007000080fa0000000600e0
:1019a8000200fa00000f780030a780009e0078003f
:1019b8001100980060a780009e0f100005003100fc
:1019c80030a780008080e80080a480002f070700ef
:1019d8000900370030a780008080e80070a48000ec
:1019e8002a070700f0a780009e0f100002003100b0
:1019f8001e007800f0a788000080fa0000000600aa
:101a08000800fa001007980021079800000220003b
:101a1800ae070700000f78001e00e0001d0032002e
:101a28002e0090000000e00005003a001e00900023
:101a380000004000a50707003007980002003700a3
:101a48002e009000300798001e007800be0090001d
:101a5800410898001e007800400890000000e0004f
:101a680005003a001e007800be0707000000eb00e2
:101a7800000f7800070037001e00900000004000ab
:101a8800000178001e00780040089000510a2000ec
:101a9800c9fa07001e0078000080fa00000006005e
:101aa8000200fa00000f78001e007800400890003d
:101ab800ac0707001e007800aa0707000080fa009c
:101ac800000006000a00fa00300798004107980055
:101ad8000000eb00000f78003e0090000000e000de
:101ae80043003200600220007807070020079800b2
:101af8002e0090000000e0003d003200be00900083
:101b08004e0090000088b9000000e8001007980017
:101b18001e0090006d070700800078002e009000de
:101b2800010878002e009000100078000000e00006
:101b38002d0032002e00900010017800be009000a9
:101b48004e0090000088b900800041002e009000ef
:101b580011009800ae0090000000eb00e00898002b
:101b68002e009000900078002e0090002100980030
:101b78002e009000100178003e0090008000e900df
:101b88004e0090000088b900800041002e009000af
:101b9800310098002e009000be0090007108980057
:101ba8002e009000ce00900001109800ae0090002a
:101bb8000080eb0090109800ae0090000080eb00d1
:101bc800a01098002e009000680040006d060700e5
:101bd8002e009000720040006a0607002e00900058
:101be800000f7800020037002e0090005d07070004
:101bf8001e0078000080fa00000006001000fa00bd
:101c0800300798004107980052079800630798002a
:101c18000000eb00000f780000003700ff04070009
:101c28003e009000e00890003e0090007008900090
:101c3800808f5000140031006e019000ce0090009b
:101c48003e009000480107003e00900010089000f8
:101c58000000e000080032003e00900072004000e2
:101c680065fe0700e10f500003003a00ee1b02007a
:101c78000000000000000000f2040700100020002f
:101c8800700798003e0037005e0090000000e000fa
:101c980004003a00eb0407000000eb00700798000e
:101ca800370037001e00e00004003a000e80e8000c
:101cb80085fe070010002000000f7800e1040700ef
:101cc800adfc0700d50407003e00900010109000fe
:101cd800e10f400003003a00be0090000000eb0056
:101ce800901098003e00900020109000e10f4000f6
:101cf80003003a00be0090000000eb00a01098001e
:101d0800d0040700ea0047000e80e80078fe0700cc
:101d18000000e00015003a003e009000c8010700ee
:101d28000000e0000d003200de0090003e00900050
:101d38006800400017fe07003e0090006e01070093
:101d480093fc07000000e000b4ff3a00ee1b02001d
:101d58000000000000000000b0ff37003e009000c7
:101d6800650107008afc0700acff37003e009000c1
:101d78006101070086fc07000000eb00700798006f
:101d88007e0090000080fa00000006000c00fa00b7
:101d980020079800310798004207980053079800d9
:101da8000000eb00000f78002e009000e008900083
:101db8002e00900070089000808f50001d003100a8
:101dc8005e019000be0090002e009000e600070023
:101dd8002e00900020109000e10f40000d003a0006
:101de8002e009000100890000000e0000e00320065
:101df8002e00900072004000fffd07000000e00088
:101e080009003200ce009000100020008008780001
:101e1800050037002e009000201090008000e80098
:101e28002e00900021109800100020001007980044
:101e3800020037000000eb00100798001e00900019
:101e48000080fa00000006001200fa00400798001f
:101e58005107980062079800730798000000eb008c
:101e680010079800000037006c0407004e0090002f
:101e7800600890000000e0002e0032004e00900044
:101e8800b0009000010f7800de0090004e00900036
:101e9800f90007007e0090000000e00012003a0000
:101ea8004e009000600890008000e9004e0090000d
:101eb800610898004e009000400090000000e0008b
:101ec800180032004e00900068004000cafd07006c
:101ed800e10f500013003a00ee1b02000000000062
:101ee800000000000f0037004e0090009e007800b0
:101ef800310098004e009000100890000000e000ab
:101f0800080032004e00900072004000bafd070041
:101f18000000e00003003200ee1b02000000000099
:101f2800000000004704070010002000000f980080
:101f38003f0037006e0090000000e00004003a0007
:101f4800400407008000eb00010f980038003700bc
:101f58001e0090000000e00004003a006400470002
:101f6800d9fd07001000200010079800350407006d
:101f780001fc0700290407004e0090001010900093
:101f8800e10f400003003a00ce0090000000eb0093
:101f9800901098004e00900020109000e10f400033
:101fa80003003a00ce0090000000eb00a01098005b
:101fb80024040700ec00470064004700ccfd07003c
:101fc8000000e00015003a004e00900000010700f4
:101fd8000000e0000d003200ee0090004e0090007e
:101fe800720040006bfd07004e009000c200070021
:101ff800e7fb07000000e0009bff3a00ee1b020031
:10200800000000000000000097ff37004e0090001d
:10201800b9000700defb070093ff37004e00900071
:10202800b5000700dafb07000000eb00000f98007e
:102038000e0890000080fa00000006000a00fa006e
:102048002007980031079800420798000000eb002d
:10205800000f78002e009000600890000000e0005b
:1020680021003200be0090002e0090008200070080
:102078002e009000600890008000e9002e0090007b
:10208800610898002e00900010109000e10f4000a9
:102098000d003a002e009000400090000000e00083
:1020a8000e0032002e0090006800400052fd07002c
:1020b8000000e00009003200ce009000100020006f
:1020c80080087800050037002e009000101090005e
:1020d8008000e8002e0090001110980010002000e9
:1020e80010079800020037000000eb001007980066
:1020f8001e0090000080fa00000006000400fa00ac
:1021080010079800c50307001e009000e008900023
:10211800010f7800cb0307001e0078000080fa004a
:10212800000006000400fa00100798001e00900046
:10213800e0089000010f78001e0078000080fa0087
:10214800000006000200fa00000f78001e00780068
:1021580010007800030607001e007800010607003b
:102168000080fa00000006000600fa00000f780060
:1021780011079800220798001e00780000109000b0
:102188000000e000350032002e0090000000e00062
:1021980018003a001e007800001190001e00780018
:1021a800200090009e009000e5f807001e007800cf
:1021b800a00090001e007800001090008080400071
:1021c8001e007800210098001e007800a0009000f2
:1021d8001e00780010009000808f50001f0039000a
:1021e8001e007800900078001e00780021009800fa
:1021f8001a0037001e007800001190001e007800b9
:10220800300090009e009000cdf807001e00780076
:10221800b00090001e0078000010900080805000f0
:102228001e007800310098001e007800b000900071
:102238001e00780010007800808f500007003100e1
:102248001e007800900090001e007800001090009a
:10225800808050001e007800310098001e00780031
:10226800600890008000e8001e007800610898006f
:102278000080fa00000006000400fa00000f780051
:10228800110798001e007800100078000000e00098
:10229800170032001e007800b00090001e00780081
:1022a80000109000808040001e00780031009800e7
:1022b8001e007800b00090001e007800100090000a
:1022c800808f5000040039001e00780090007800cc
:1022d8001e007800310098001e0078000011900060
:1022e8001e007800b00090001e00900094f80700cf
:1022f8000080fa00000006000200fa00000f7800d3
:10230800460307000f0037001e00780010089000f1
:102318000000e0000f0032009e007800728040004c
:10232800b5fc07000000e0000100320024fd0700b2
:102338001e007800201090008000e9001e00780040
:10234800211098001e007800201090000000e00086
:10235800edff3c009e0078000080eb00a010980084
:10236800380307002d0307000f0037001e00780010
:10237800400090000000e0000f0032009e0078004e
:10238800688040009cfc07000000e000010032006b
:102398000bfd07001e007800101090008000e90077
:1023a8001e007800111098001e0078001010900090
:1023b8000000e000edff3c009e0078000080eb008c
:1023c800901098001f0307000080fa000000060024
:1023d8000400fa0010079800100307001e00900080
:1023e800e00890000000eb00000f78000100e0001a
:1023f80002003a0010002000000f780011030700c7
:102408001e0078000080fa00000006000400fa00b0
:10241800100798001e009000e00890000000eb00f4
:10242800000f78000100e00002003a0010002000d0
:10243800000f78001e0078000080fa0000000600f7
:102448000400fa0010079800f40207001e0090002c
:10245800600990001e009000f00890000000eb005a
:10246800000f7800810f510002003a001000200090
:10247800000f7800f30207001e0078000080fa00c1
:10248800000006000400fa00100798001e009000e3
:10249800600990001e009000f00890000000eb001a
:1024a800000f7800810f510002003a001000200050
:1024b800000f78001e0078000080fa000000060077
:1024c8000a00fa00100798002107980032079800c0
:1024d80011028000000220000080700010028800b5
:1024e8001e009000d6ff07000000e0001500320033
:1024f8003e0090000000e0000b0032001e0090003b
:10250800e80040003e0090004301070011028000ef
:10251800f0fd2f000080600010028800c0ff2f002f
:10252800400798003000370010028000f1fd2f00ae
:1025380001006000100288000000eb0040079800ce
:102548002900370011028000f0fd2f000080600094
:102558001002880000000000110280000002200024
:1025680000807000100288001e009000e0089000b3
:102578001e00900070089000808f500012003100fb
:102588000001eb00ae0090001e009000f6fe070070
:1025980010002000000f78001e0090001008900026
:1025a8000000e0000a0032001e00900072004000a7
:1025b800fd0107000000e00005003200b0ff2f0019
:1025c800000f7800020037000000eb00000f7800d1
:1025d80010028000f1fd2f00010060001002880049
:1025e8001e007800400798004e0090000080fa0016
:1025f800000006000a00fa0010079800210798005a
:10260800320798001102800000022000008070004c
:10261800100288001e009000600890000000e00092
:1026280015003a003e0090000000e0000b00320068
:102638001e009000f20040003e009000f6000700e7
:1026480011028000f0fd2f00008060001002880059
:10265800c0ff2f0040079800460037001002800096
:10266800f1fd2f0001006000100288000000eb005f
:10267800400798003f00370011028000f0fd2f004e
:102688000080600010028800000000001102800035
:102698000002200000807000100288001e009000d8
:1026a800600890000000e0002a0032001e00900040
:1026b800b00090001e009000001090008080400044
:1026c8001e009000310098001e009000b00090009d
:1026d8001e00900010009000808f50000400390008
:1026e8001e009000900078001e00900031009800b5
:1026f8001e009000600890008000e9001e00900015
:10270800610898001e009000001190001e009000c3
:10271800b00090002e00900089f7070010002000fc
:10272800000f78001e009000400090000000e000bc
:102738000a0032001e009000680040009a0107005d
:102748000000e00005003200b0ff2f00000f780005
:10275800020037000000eb00000f78001002800034
:10276800f1fd2f0001006000100288001e007800b3
:10277800400798004e0090000080fa000000060014
:102788000800fa00000f7800110798002207980047
:102798001e007800e00890001e0078007008900085
:1027a800808f5000130031000001eb009e00900064
:1027b8001e0078006cfe07002e0090000000e0006c
:1027c8000c003a001e007800100890000000e0009d
:1027d800080032009e0078007280400072010700f5
:1027e8000000e000030032001000200030079800cd
:1027f80002003700ae009000310798003e009000bc
:102808000080fa00000006000800fa00100798008f
:1028180021079800320798001e0090006008900079
:102828000000e0002f0032001e009000b000900071
:102838001e00900000109000808040001e00900054
:10284800310098001e009000b00090001e0090001b
:1028580010009000808f5000040039001e00900086
:10286800900078001e009000310098001e00900033
:10287800600890008000e9001e0090006108980040
:102888001e009000001190001e009000b000900003
:102898002e0090002af707003e00900010007800f4
:1028a8000000e0000c003a001e009000400090007c
:1028b8000000e000080032001e00900068004000a0
:1028c800390107000000e00003003200be0090005c
:1028d800100020008008780010002000000f780009
:1028e800020037000000eb00000f78001e0078009f
:1028f8000080fa00000006000a00fa00200798008d
:102908003107980042079800c0012000ef03070034
:10291800000f78001e00e0003a00320000a8800096
:102928000000e00003003a001e00780000a88800bc
:10293800030107003e009000e10f5000020036003e
:1029480010002000300798009e0078000000eb007f
:10295800d00898001e007800be009000310898004a
:102968001e007800ce009000410898001e007800f4
:10297800ae009000010878001e80e8001a030700e6
:102988009e0078006c804000170307001e00780046
:102998009e007800410098001e0078009e00780094
:1029a800110898003e009000e40010001e00780016
:1029b800610098001e007800b008900010a8800000
:1029c800808f5000030036001e0078003008900009
:1029d80010a888001e81e8001e00780030089000ca
:1029e8006a00b90080007800004b21000080400098
:1029f80082007800030307001000200010079800e9
:102a0800020037000080eb00100798001e009000bd
:102a18000080fa00000006000600fa00100798007f
:102a28002107980021a880001e009000008f400018
:102a380000a880000080e8004403070000a8800088
:102a48009e0078001100980020a880009e0f1000ba
:102a58000500310000a880008080e800d0a6800032
:102a68000a0307000400370000a880008080e800ff
:102a7800c0a68000050307002e0090000000e000bb
:102a88000400320000a88000ec0040002e009000f6
:102a9800fe0207000080fa00000006000200fa00ab
:102aa8002100370011028000000220000080700021
:102ab8001002880010a7800030009000000f7800f6
:102ac8009e0078006c8040002003070011028000ff
:102ad800f0fd2f0000806000100288001e80e800d2
:102ae8001a0307001e007800b008900010a88000a4
:102af800808f5000030036001e00780030089000d8
:102b080010a888001e81e8001e0078003008900098
:102b18006a00b90080007800004b21000080400066
:102b280082007800b7020700e0a680000000e000fd
:102b3800dcff3a000080fa00000006000400fa00fa
:102b480067f9070031a880000100500040a88800fc
:102b58004100370020a880000000e80020a8880075
:102b680040a880000000e90040a8880020a8800054
:102b78000000e00034003a00c0a68000000f780092
:102b8800d0a68000c0a688001e007800d0a68800c5
:102b98002d003700c0a68000300090003000900063
:102ba800100798001e0090009000900020a8800058
:102bb800808f500028003e00110280000002200093
:102bc80000807000100288001e0090000080e8005d
:102bd800de0207001e009000200890000000e000c0
:102be800030032001e0090006c004000d70207006e
:102bf80011028000f0fd2f000080600010028800a4
:102c08001e009000b008900010a88000808f50002f
:102c1800030036001e0090003008900010a88800bd
:102c28001e0090000081e8001e009000300890000f
:102c38006a00b90080007800004b21000080400045
:102c4800820078006f020700c0a68000100078009c
:102c58000000e000cfff3a0040a880000000e0003c
:102c6800bcff3a0020a8800030a888000080fa0045
:102c7800000006000200fa0088ff0700afff070007
:102c88000600370010a880000000e0002a0032008b
:102c980010a880000000e90010a8880010a8800093
:102ca8006a00b90080007800004b210000804000d5
:102cb800100078000000e000f2ff320010a8800049
:102cc8006a00b90080007800004b2100008f4000a6
:102cd8001e00780010009000900090001e00780000
:102ce800110098001e007800900090001e017800e6
:102cf80064004100808f500005003a001e007800f3
:102d080010009000900090001e00780011009800bc
:102d18001e007800100090003000900000a8880085
:102d280000a880001001780000a88000c00890006a
:102d380000a88000020001000080fa0000000600e0
:102d48000200fa000000eb00000f780007003700cf
:102d58001e0078006a00b90080007800004b21004e
:102d680000804000070207001e0fe8001000200046
:102d78009e0f1000f6ff3600404c210001020700ac
:102d8800e04c2100ff010700c04d2100fd010700b4
:102d9800404c2100c0a68800e04c2100d0a6880045
:102da8000080fa00000006000600fa0020079800dc
:102db8002e0090003000900030009000100798001e
:102dc8001e0090006c004000600207001e0090008a
:102dd800ec004000c04d21000a0207001e009000d0
:102de800b008900000a8800030089000808f500044
:102df8000300390010002000000f7800020037009f
:102e08000000eb00000f78001e0078000080fa0038
:102e1800000006000a00fa00200798003107980011
:102e2800420798003e009000100798002e0090007e
:102e38009e009000010878002e0090000080e800b5
:102e480020079800ae0090000000eb008008780092
:102e58002e0090000080e80020079800ae00900047
:102e68000000eb00800878002e0090000080e80049
:102e7800200798004e009000800078002e009000f7
:102e8800010878002e0090000080e80020079800d4
:102e98000000eb00000f78000b0037001e007800e0
:102ea80080004000e02e280000804000900078005c
:102eb8002e009000010878002e0090000080e800a5
:102ec800200798001e0fe8001e007800fa0f500037
:102ed800f2ff3600210280002e00900001087800e1
:102ee8002e0090000080e8002007980034c0bf0042
:102ef8008080fb002e009000010878002e009000d2
:102f08000080e80020079800ae0090000000eb0069
:102f1800800878002e0090000080e80020079800c4
:102f28002e0090000080fa00000006000000fa0061
:102f38002300070030a78000900778004f00780032
:102f480060a888003400f9004400f9004000f90046
:102f58003e00f9003c00f9003a00f9003800f90099
:102f68002c00f9002a00f9002800f9002600f900d1
:102f78002400f9002200f9003200f9003600f900b7
:102f88004f0778004f06be004f05be004f04be0035
:102f98004f03be004f02be004f01be004f00be00ef
:102fa8004200f90000000600100020000080fa002e
:102fb800000006000000fa000080fa000000060089
:102fc8000400fa007038210001002000008fbe00c4
:102fd8000000eb00200888000000eb0000088800d3
:102fe8001e00780010088800510a200091407800df
:102ff800f0c8b30000c060000044a000a5e0b7001e
:103008008460a9009460a8000481a80004a1a90014
:1030180005e1a8000080fa00000006000000fa00a0
:103028001102800000022000008070001002880059
:1030380060a880000000e80060a888000080fa000e
:10304800000006000000fa0060a880000000e90007
:1030580060a8880060a880000000e00004003a0032
:1030680010028000f1fd2f000100600010028800ae
:103078000080fa00000006003600f800809fbe00bd
:10308800829fbe00849fbe00869fbe003400f80069
:1030980000002000a00188000000fa008460a90058
:1030a80023f80700ee1b02000000000000000000eb
:1030b8000080fa003400f9004f03be004f02be0042
:1030c8004f01be004f00be003600f9000040060068
:1030d8000200fa000040eb00004f780028000700cb
:1030e800413228008003eb000003eb008002eb0074
:1030f800140020008001eb0052052000c08c210044
:103108005bf50700a13228008003eb000003eb0009
:103118008002eb00140020008001eb005205200023
:10312800808f210052f507000040eb0010479800ff
:103138000c003700f13228008003eb000003eb009d
:103148008002eb00140020008001eb0052052000f3
:103158002091210046f507001e4090000040e8003d
:10316800104798001e4090009e4f5000f1ff350018
:103178005ef707000000eb000080fa000000060080
:103188000000fa006b0007000080fa00000006004b
:103198000600fa00200798000040eb00004f780076
:1031a800cff7070010079800000037000e80e800ee
:1031b800813e2000d9f507001e04e00005003a0012
:1031c80010c0b3006200070010c0b300004f7800c1
:1031d800f6ff37000040eb005d0007000040eb0001
:1031e800004f7800f1ff37000400fa00100798003c
:1031f800bbf70700000f780000003700e0c2bf00ef
:10320800704060000004e00002003200da82a8008a
:10321800faff3700da82a900f8ff37000600fa0043
:10322800200798000000eb00000f78000000eb007a
:1032380010079800040037001e0fe8001e009000d9
:103248000000e800100798009e009000703e2000e3
:10325800808f5000f8ff3400f4ff37000400fa00b4
:10326800100798009ef70700000f7800000037004d
:10327800a10020000e007800a8f5070051a88000e2
:1032880000202000808f500002003400da22a800bd
:10329800f7ff3700da22a900f5ff37000000fa002f
:1032a800ffff3700809fbe00821f78003400f800bf
:1032b80000002000a00188000000fa00d5c2bf006d
:1032c8000080fb004200de00614060006140600059
:1032d8004501dd00a12d200091407800f0cdb3001c
:1032e80000c0600002407000dae2b70088a0a900c0
:1032f8000080fa003400f9004f0178004f00be004a
:1033080000400600801f78003400f800000020000c
:10331800a00188000000fa000018800050a888006a
:1033280085a0a9000080fa003400f9004f00780059
:10333800004006000000fa002000070026000700f1
:10334800170007002b0007000080fa0000000600a5
:103358000200fa00004f780010c0b3009e4f100022
:1033680002003a00da02a80001003700da02a900d8
:103378000080fa00000006000200fa00004f780002
:1033880010c0b3009e4f100002003a00da82a80075
:1033980001003700da82a9000080fa000000060068
:1033a8000000fa000000eb00b0168800f00f2000c3
:1033b800901688000080fa00000006000000fa005d
:1033c8000000eb00e01688000000eb00c016880043
:1033d8000080fa00000006000000fa000000eb0080
:1033e80010178800f00f2000f01688000080fa00ff
:1033f800000006000000fa00b0022000303a880001
:1034080044c7bf00f043b20044e7b700417420004e
:103418009140780000ceb30000c0600044e7b700d8
:103428000000eb00403a88001200200081072000cd
:10343800a009200033742000814978008049780071
:1034480082497800120020006104200070052000e5
:1034580023742000814978008049780082497800e7
:1034680043c7bf000047b200f04f5000fcff3a00ce
:1034780042c7bf000042b2000004e000fcff320077
:103488000080fa00000006000000fa00a1142000e5
:103498009140780080cfb30000c060004ae1b700d7
:1034a800a114200091407800f0c9b30000c060006a
:1034b8004ae1b700a11420009140780080cfb30002
:1034c80000c060000004a0004ae1b700610b2000c2
:1034d80091407800f0c8b30000c060000044a0002c
:1034e800b6e0b70088a0a90098a0a8000080fa005c
:1034f800000006000000fa00c702a80011322000f0
:1035080091407800c0cfb30000c0600021e3b7004d
:10351800013220009140780000ceb30000c0700056
:1035280020e3b7002043a8002143a9002343a800b3
:103538003132200091407800c0cfb30000c0600055
:1035480023e3b70025e3a900213220009140780049
:1035580030ccb30000c06000c040b30022e3b70025
:103568003103a8000080eb00601988002d03a90032
:1035780085a0a90095a0a80021e3a8000080fa0072
:10358800000006000200fa00000f78009e00780094
:1035980064804000800078001e00780011009800c8
:1035a8009e0078000080eb00a00098009e00780044
:1035b80064804000800078001e0078003100980088
:1035c8009e00780064804000800078001e0078002b
:1035d800410098009e0078000000eb008008780009
:1035e8000080fa00000006000200fa00000f7800d0
:1035f8009e0078000000eb00c00098000080fa00f0
:10360800000006000600fa0010079800210798003d
:103618001e00900090009000010f78001e007800b6
:10362800900090002e009000110098001e0090005d
:10363800900090002e009000210098001e00780055
:10364800900090002e009000a0009800ae0090001e
:103658001e00780011009800ae0090001e00900037
:10366800110098002e0090009e00900041009800e4
:103678001e009000100078008000e8001e009000f6
:10368800010878000080fa00000006000800fa002f
:1036980020079800310798003e009000100f78002e
:1036a8000080eb009e0f100004003a002e009000ee
:1036b800c0009000110798000c0037002e00900001
:1036c8006400400010079800030037001e009000b7
:1036d80090009000110798001e00900010009000c4
:1036e800100078009e0f5000f8ff36001e00900072
:1036f800900090003e009000110098003e0090005d
:10370800900090003e009000a00098003e009000bd
:103718009e00900021009800be0090001e009000be
:10372800110098003e009000ae0090004100980003
:103738002e009000100078008000e8002e00900015
:10374800010878000080fa00000006000400fa0072
:10375800100798001e009000900090001e00900036
:1037680020009000a00098001e009000a00090008b
:103778001e00900010009000900098001e0090001d
:1037880040009000000f78001e0078009000900024
:103798001e009000808f500004003a001e00900028
:1037a800a00090001e007800110098009e00900074
:1037b8000000eb00c00098001e00780010007800a0
:1037c8008000e9001e007800010878000080fa00f7
:1037d800000006004200f800801f78000002200068
:1037e80010028800811f7800829fbe00849fbe005f
:1037f800869fbe00889fbe008a9fbe008c9fbe0029
:103808008e1f78003600f8003200f8002200f80019
:103818002400f8002600f8002800f8002a00f80024
:103828002c00f8003800f8003a00f8003c00f800d6
:103838003e00f8004000f8004400f8003400f800aa
:1038480060a88000801f780030a780000f087800eb
:10385800740a02000000000030a78000900778007a
:103868004f00780060a888003400f9004400f9008f
:103878004000f9003e00f9003c00f9003a00f90068
:103888003800f9002c00f9002a00f9002800f90096
:103898002600f9002400f9002200f9003200f9009e
:1038a8003600f9004f0778004f06be004f05be00ee
:1038b8004f04be004f03be004f02be004f01be00c2
:1038c8004f00be004200f900000006000400fa00a4
:1038d800100798000000eb00000f78001e00900011
:1038e800610060000004e000050032009e009000c6
:1038f800e0ff2f00008060000080e80010079800bb
:103908009df50700814280001e00900080804000e5
:10391800f0bf2000808f50000e003e0081428000e2
:103928001e0090008080400080428000808f500000
:103938000800360080428000800078002085200042
:10394800008f4000814280001e00900000804000ef
:10395800804288008ef507001e0078000080fa007b
:10396800000006000200fa00000f78000080fa004c
:10397800000006000000fa000000eb00804288000a
:103988000080fa00000006000000fa008142800072
:1039980000c02000010050000080fa00000006006e
:020000040000fa
:1039a8000a150000020000000000000000150000d9
:1039b8000a000000020000000000000000000000f3
:1039c8000000000000000000b014000036000000f5
:1039d80000000000e61400001a00000002000000c9
:1039e80000000000000000000000000000000000cf
:1039f80000000000000000000000000000000000bf
:103a0800ffff0000521400005e00000000000000ec
:103a180050080000020c0000000000000c15000017
:103a28000200000002000000ef000000000000009b
:00000001FF
